{
  "transactions": [
    {
      "hash": "0xa6bb82fba1977177c30007bbb90a38df311b453283413cf09016b7031b75ed7b",
      "transactionType": "CALL",
      "contractName": null,
      "contractAddress": "0x01592110A91cdA4AD3D229a66a51A4FEeb0Db922",
      "function": "register(address,uint256)",
      "arguments": [
        "0x965B0E63e00E7805569ee3B428Cf96330DFc57EF",
        "0"
      ],
      "transaction": {
        "type": "0x00",
        "from": "0x965b0e63e00e7805569ee3b428cf96330dfc57ef",
        "to": "0x01592110a91cda4ad3d229a66a51a4feeb0db922",
        "gas": "0x8d68ad3",
        "value": "0x0",
        "data": "0x6d705ebb000000000000000000000000965b0e63e00e7805569ee3b428cf96330dfc57ef0000000000000000000000000000000000000000000000000000000000000000",
        "nonce": "0x1b"
      },
      "additionalContracts": [],
      "isFixedGasLimit": false,
      "zk": {
        "factoryDeps": []
      }
    }
  ],
  "receipts": [],
  "libraries": [],
  "pending": [
    "0xa6bb82fba1977177c30007bbb90a38df311b453283413cf09016b7031b75ed7b"
  ],
  "returns": {},
  "timestamp": 1715061012,
  "chain": 300,
  "multi": false,
  "commit": "d44ea97"
}