{
  "transactions": [
    {
      "hash": "0xa6bb82fba1977177c30007bbb90a38df311b453283413cf09016b7031b75ed7b",
      "transactionType": "CALL",
      "contractName": null,
      "contractAddress": "0x01592110A91cdA4AD3D229a66a51A4FEeb0Db922",
      "function": "register(address,uint256)",
      "arguments": [
        "0x965B0E63e00E7805569ee3B428Cf96330DFc57EF",
        "0"
      ],
      "transaction": {
        "type": "0x00",
        "from": "0x965b0e63e00e7805569ee3b428cf96330dfc57ef",
        "to": "0x01592110a91cda4ad3d229a66a51a4feeb0db922",
        "gas": "0x8d68ad3",
        "value": "0x0",
        "data": "0x6d705ebb000000000000000000000000965b0e63e00e7805569ee3b428cf96330dfc57ef0000000000000000000000000000000000000000000000000000000000000000",
        "nonce": "0x1b"
      },
      "additionalContracts": [],
      "isFixedGasLimit": false,
      "zk": {
        "factoryDeps": []
      }
    }
  ],
  "receipts": [
    {
      "transactionHash": "0xa6bb82fba1977177c30007bbb90a38df311b453283413cf09016b7031b75ed7b",
      "transactionIndex": "0x0",
      "blockHash": "0xf162ca80033df91f9a30805b5e1b7ca01480ba5e0523b6ebe521513309420cbe",
      "blockNumber": "0x20ffcd",
      "from": "0x965B0E63e00E7805569ee3B428Cf96330DFc57EF",
      "to": "0x01592110A91cdA4AD3D229a66a51A4FEeb0Db922",
      "cumulativeGasUsed": "0x0",
      "gasUsed": "0x35944d",
      "contractAddress": "0x6788514dD11790c0F860dbC6F9b89D05582e3251",
      "logs": [
        {
          "address": "0x000000000000000000000000000000000000800A",
          "topics": [
            "0xddf252ad1be2c89b69c2b068fc378daa952ba7f163c4a11628f55a4df523b3ef",
            "0x000000000000000000000000965b0e63e00e7805569ee3b428cf96330dfc57ef",
            "0x0000000000000000000000000000000000000000000000000000000000008001"
          ],
          "data": "0x0000000000000000000000000000000000000000000000000004223b88c6fe00",
          "blockHash": "0xf162ca80033df91f9a30805b5e1b7ca01480ba5e0523b6ebe521513309420cbe",
          "blockNumber": "0x20ffcd",
          "transactionHash": "0xa6bb82fba1977177c30007bbb90a38df311b453283413cf09016b7031b75ed7b",
          "transactionIndex": "0x0",
          "logIndex": "0x0",
          "transactionLogIndex": "0x0",
          "removed": false
        },
        {
          "address": "0x6788514dD11790c0F860dbC6F9b89D05582e3251",
          "topics": [
            "0x8be0079c531659141344cd1fd0a4f28419497f9722a3daafe3b4186f6b6457e0",
            "0x0000000000000000000000000000000000000000000000000000000000000000",
            "0x000000000000000000000000965b0e63e00e7805569ee3b428cf96330dfc57ef"
          ],
          "data": "0x",
          "blockHash": "0xf162ca80033df91f9a30805b5e1b7ca01480ba5e0523b6ebe521513309420cbe",
          "blockNumber": "0x20ffcd",
          "transactionHash": "0xa6bb82fba1977177c30007bbb90a38df311b453283413cf09016b7031b75ed7b",
          "transactionIndex": "0x0",
          "logIndex": "0x1",
          "transactionLogIndex": "0x1",
          "removed": false
        },
        {
          "address": "0x0000000000000000000000000000000000008006",
          "topics": [
            "0x290afdae231a3fc0bbae8b1af63698b0a1d79b21ad17df0342dfb952fe74f8e5",
            "0x000000000000000000000000ff964183d5feafe1f194939ab00d423348277f6d",
            "0x01000637f2f49a28d907d17ac5bc91a333ea2f65a57374d5f4871a0c44659378",
            "0x0000000000000000000000006788514dd11790c0f860dbc6f9b89d05582e3251"
          ],
          "data": "0x",
          "blockHash": "0xf162ca80033df91f9a30805b5e1b7ca01480ba5e0523b6ebe521513309420cbe",
          "blockNumber": "0x20ffcd",
          "transactionHash": "0xa6bb82fba1977177c30007bbb90a38df311b453283413cf09016b7031b75ed7b",
          "transactionIndex": "0x0",
          "logIndex": "0x2",
          "transactionLogIndex": "0x2",
          "removed": false
        },
        {
          "address": "0x65dcD3047bA46e2926CC4C077A8F8477B91F333b",
          "topics": [
            "0xddf252ad1be2c89b69c2b068fc378daa952ba7f163c4a11628f55a4df523b3ef",
            "0x0000000000000000000000000000000000000000000000000000000000000000",
            "0x0000000000000000000000006788514dd11790c0f860dbc6f9b89d05582e3251",
            "0x0000000000000000000000000000000000000000000000000000000000000000"
          ],
          "data": "0x",
          "blockHash": "0xf162ca80033df91f9a30805b5e1b7ca01480ba5e0523b6ebe521513309420cbe",
          "blockNumber": "0x20ffcd",
          "transactionHash": "0xa6bb82fba1977177c30007bbb90a38df311b453283413cf09016b7031b75ed7b",
          "transactionIndex": "0x0",
          "logIndex": "0x3",
          "transactionLogIndex": "0x3",
          "removed": false
        },
        {
          "address": "0x65dcD3047bA46e2926CC4C077A8F8477B91F333b",
          "topics": [
            "0xf8e1a15aba9398e019f0b49df1a4fde98ee17ae345cb5f6b5e2c27f5033e8ce7"
          ],
          "data": "0x0000000000000000000000000000000000000000000000000000000000000000",
          "blockHash": "0xf162ca80033df91f9a30805b5e1b7ca01480ba5e0523b6ebe521513309420cbe",
          "blockNumber": "0x20ffcd",
          "transactionHash": "0xa6bb82fba1977177c30007bbb90a38df311b453283413cf09016b7031b75ed7b",
          "transactionIndex": "0x0",
          "logIndex": "0x4",
          "transactionLogIndex": "0x4",
          "removed": false
        },
        {
          "address": "0x65dcD3047bA46e2926CC4C077A8F8477B91F333b",
          "topics": [
            "0x4d77f1c1090b0d1a5f71862a2bd913babdeb6321f9e743189ed3d423341fc8e4",
            "0x0000000000000000000000006788514dd11790c0f860dbc6f9b89d05582e3251",
            "0x0000000000000000000000000000000000000000000000000000000000000000"
          ],
          "data": "0x0000000000000000000000000000000000000000000000000000000000000020000000000000000000000000000000000000000000000000000000000000006868747470733a2f2f736361726c65742d696d706c696369742d736561686f7273652d3639342e6d7970696e6174612e636c6f75642f697066732f516d5745365844794d38633354753951394268587a705a4337456b4352374c4c784354543571546331376d71364d000000000000000000000000000000000000000000000000",
          "blockHash": "0xf162ca80033df91f9a30805b5e1b7ca01480ba5e0523b6ebe521513309420cbe",
          "blockNumber": "0x20ffcd",
          "transactionHash": "0xa6bb82fba1977177c30007bbb90a38df311b453283413cf09016b7031b75ed7b",
          "transactionIndex": "0x0",
          "logIndex": "0x5",
          "transactionLogIndex": "0x5",
          "removed": false
        },
        {
          "address": "0x01592110A91cdA4AD3D229a66a51A4FEeb0Db922",
          "topics": [
            "0xae6249e1b0de18c2723755a5833e4712be14aaa5c1d2b8923223ad3784964f6e",
            "0x000000000000000000000000965b0e63e00e7805569ee3b428cf96330dfc57ef",
            "0x0000000000000000000000006788514dd11790c0f860dbc6f9b89d05582e3251",
            "0x0000000000000000000000000000000000000000000000000000000000000000"
          ],
          "data": "0x",
          "blockHash": "0xf162ca80033df91f9a30805b5e1b7ca01480ba5e0523b6ebe521513309420cbe",
          "blockNumber": "0x20ffcd",
          "transactionHash": "0xa6bb82fba1977177c30007bbb90a38df311b453283413cf09016b7031b75ed7b",
          "transactionIndex": "0x0",
          "logIndex": "0x6",
          "transactionLogIndex": "0x6",
          "removed": false
        },
        {
          "address": "0x000000000000000000000000000000000000800A",
          "topics": [
            "0xddf252ad1be2c89b69c2b068fc378daa952ba7f163c4a11628f55a4df523b3ef",
            "0x0000000000000000000000000000000000000000000000000000000000008001",
            "0x000000000000000000000000965b0e63e00e7805569ee3b428cf96330dfc57ef"
          ],
          "data": "0x0000000000000000000000000000000000000000000000000002e2e002be5100",
          "blockHash": "0xf162ca80033df91f9a30805b5e1b7ca01480ba5e0523b6ebe521513309420cbe",
          "blockNumber": "0x20ffcd",
          "transactionHash": "0xa6bb82fba1977177c30007bbb90a38df311b453283413cf09016b7031b75ed7b",
          "transactionIndex": "0x0",
          "logIndex": "0x7",
          "transactionLogIndex": "0x7",
          "removed": false
        }
      ],
      "status": "0x1",
      "root": "0xf162ca80033df91f9a30805b5e1b7ca01480ba5e0523b6ebe521513309420cbe",
      "logsBloom": "0x00000000000000000000000000000000000000000000000000000000000000000000000000000000000000000000000000000000000000000000000000000000000000000000000000000000000000000000000000000000000000000000000000000000000000000000000000000000000000000000000000000000000000000000000000000000000000000000000000000000000000000000000000000000000000000000000000000000000000000000000000000000000000000000000000000000000000000000000000000000000000000000000000000000000000000000000000000000000000000000000000000000000000000000000000000000",
      "type": "0x71",
      "effectiveGasPrice": "0x5f5e100"
    }
  ],
  "libraries": [],
  "pending": [],
  "returns": {},
  "timestamp": 1715061013,
  "chain": 300,
  "multi": false,
  "commit": "d44ea97"
}